{
  "_format": "hh-sol-artifact-1",
  "contractName": "PropertyRecorder",
  "sourceName": "contracts/PropertyRecorder.sol",
  "abi": [
    {
      "inputs": [],
      "stateMutability": "nonpayable",
      "type": "constructor"
    },
    {
      "inputs": [
        {
          "internalType": "string",
          "name": "message",
          "type": "string"
        }
      ],
      "name": "UnautorizedCaller",
      "type": "error"
    },
    {
      "anonymous": false,
      "inputs": [
        {
          "indexed": true,
          "internalType": "address",
          "name": "owner",
          "type": "address"
        },
        {
          "indexed": true,
          "internalType": "address",
          "name": "approved",
          "type": "address"
        },
        {
          "indexed": true,
          "internalType": "uint256",
          "name": "tokenId",
          "type": "uint256"
        }
      ],
      "name": "Approval",
      "type": "event"
    },
    {
      "anonymous": false,
      "inputs": [
        {
          "indexed": true,
          "internalType": "address",
          "name": "owner",
          "type": "address"
        },
        {
          "indexed": true,
          "internalType": "address",
          "name": "operator",
          "type": "address"
        },
        {
          "indexed": false,
          "internalType": "bool",
          "name": "approved",
          "type": "bool"
        }
      ],
      "name": "ApprovalForAll",
      "type": "event"
    },
    {
      "anonymous": false,
      "inputs": [
        {
          "indexed": false,
          "internalType": "uint256",
          "name": "_fromTokenId",
          "type": "uint256"
        },
        {
          "indexed": false,
          "internalType": "uint256",
          "name": "_toTokenId",
          "type": "uint256"
        }
      ],
      "name": "BatchMetadataUpdate",
      "type": "event"
    },
    {
      "anonymous": false,
      "inputs": [
        {
          "indexed": false,
          "internalType": "uint256",
          "name": "_tokenId",
          "type": "uint256"
        }
      ],
      "name": "MetadataUpdate",
      "type": "event"
    },
    {
      "anonymous": false,
      "inputs": [
        {
          "indexed": true,
          "internalType": "uint256",
          "name": "tokenId",
          "type": "uint256"
        },
        {
          "indexed": false,
          "internalType": "address",
          "name": "recorder",
          "type": "address"
        },
        {
          "indexed": false,
          "internalType": "address",
          "name": "database",
          "type": "address"
        },
        {
          "indexed": false,
          "internalType": "uint256",
          "name": "instrumentNum",
          "type": "uint256"
        },
        {
          "indexed": false,
          "internalType": "string",
          "name": "status",
          "type": "string"
        },
        {
          "indexed": false,
          "internalType": "bool",
          "name": "recorded",
          "type": "bool"
        }
      ],
      "name": "PropertyCreated",
      "type": "event"
    },
    {
      "anonymous": false,
      "inputs": [
        {
          "indexed": true,
          "internalType": "address",
          "name": "from",
          "type": "address"
        },
        {
          "indexed": true,
          "internalType": "address",
          "name": "to",
          "type": "address"
        },
        {
          "indexed": true,
          "internalType": "uint256",
          "name": "tokenId",
          "type": "uint256"
        }
      ],
      "name": "Transfer",
      "type": "event"
    },
    {
      "inputs": [
        {
          "internalType": "address",
          "name": "_newManager",
          "type": "address"
        }
      ],
      "name": "addManager",
      "outputs": [],
      "stateMutability": "nonpayable",
      "type": "function"
    },
    {
      "inputs": [],
      "name": "admin",
      "outputs": [
        {
          "internalType": "address",
          "name": "",
          "type": "address"
        }
      ],
      "stateMutability": "view",
      "type": "function"
    },
    {
      "inputs": [
        {
          "internalType": "address",
          "name": "to",
          "type": "address"
        },
        {
          "internalType": "uint256",
          "name": "tokenId",
          "type": "uint256"
        }
      ],
      "name": "approve",
      "outputs": [],
      "stateMutability": "nonpayable",
      "type": "function"
    },
    {
      "inputs": [
        {
          "internalType": "uint256",
          "name": "tokenId",
          "type": "uint256"
        }
      ],
      "name": "approvedPropertyStatus",
      "outputs": [],
      "stateMutability": "nonpayable",
      "type": "function"
    },
    {
      "inputs": [
        {
          "internalType": "address",
          "name": "owner",
          "type": "address"
        }
      ],
      "name": "balanceOf",
      "outputs": [
        {
          "internalType": "uint256",
          "name": "",
          "type": "uint256"
        }
      ],
      "stateMutability": "view",
      "type": "function"
    },
    {
      "inputs": [
        {
          "internalType": "string",
          "name": "tokenURI",
          "type": "string"
        },
        {
          "internalType": "uint256",
          "name": "instrumentNum",
          "type": "uint256"
        }
      ],
      "name": "createProperty",
      "outputs": [
        {
          "internalType": "uint256",
          "name": "",
          "type": "uint256"
        }
      ],
      "stateMutability": "nonpayable",
      "type": "function"
    },
    {
      "inputs": [
        {
          "internalType": "string",
          "name": "tokenURI",
          "type": "string"
        },
        {
          "internalType": "uint256",
          "name": "instrumentNum",
          "type": "uint256"
        }
      ],
      "name": "createPropertyByManagers",
      "outputs": [
        {
          "internalType": "uint256",
          "name": "",
          "type": "uint256"
        }
      ],
      "stateMutability": "nonpayable",
      "type": "function"
    },
    {
      "inputs": [],
      "name": "fetchAllProperties",
      "outputs": [
        {
          "components": [
            {
              "internalType": "uint256",
              "name": "tokenId",
              "type": "uint256"
            },
            {
              "internalType": "address",
              "name": "recorder",
              "type": "address"
            },
            {
              "internalType": "address",
              "name": "database",
              "type": "address"
            },
            {
              "internalType": "uint256",
              "name": "instrumentNumber",
              "type": "uint256"
            },
            {
              "internalType": "string",
              "name": "status",
              "type": "string"
            },
            {
              "internalType": "bool",
              "name": "recorded",
              "type": "bool"
            }
          ],
          "internalType": "struct PropertyRecorder.PropertyData[]",
          "name": "",
          "type": "tuple[]"
        }
      ],
      "stateMutability": "view",
      "type": "function"
    },
    {
      "inputs": [],
      "name": "fetchAllPropertiesByManagers",
      "outputs": [
        {
          "components": [
            {
              "internalType": "uint256",
              "name": "tokenId",
              "type": "uint256"
            },
            {
              "internalType": "address",
              "name": "recorder",
              "type": "address"
            },
            {
              "internalType": "address",
              "name": "database",
              "type": "address"
            },
            {
              "internalType": "uint256",
              "name": "instrumentNumber",
              "type": "uint256"
            },
            {
              "internalType": "string",
              "name": "status",
              "type": "string"
            },
            {
              "internalType": "bool",
              "name": "recorded",
              "type": "bool"
            }
          ],
          "internalType": "struct PropertyRecorder.PropertyData[]",
          "name": "",
          "type": "tuple[]"
        }
      ],
      "stateMutability": "view",
      "type": "function"
    },
    {
      "inputs": [
        {
          "internalType": "uint256",
          "name": "_instrumentNum",
          "type": "uint256"
        }
      ],
      "name": "fetchPropertiesByNum",
      "outputs": [
        {
          "components": [
            {
              "internalType": "uint256",
              "name": "tokenId",
              "type": "uint256"
            },
            {
              "internalType": "address",
              "name": "recorder",
              "type": "address"
            },
            {
              "internalType": "address",
              "name": "database",
              "type": "address"
            },
            {
              "internalType": "uint256",
              "name": "instrumentNumber",
              "type": "uint256"
            },
            {
              "internalType": "string",
              "name": "status",
              "type": "string"
            },
            {
              "internalType": "bool",
              "name": "recorded",
              "type": "bool"
            }
          ],
          "internalType": "struct PropertyRecorder.PropertyData[]",
          "name": "",
          "type": "tuple[]"
        }
      ],
      "stateMutability": "view",
      "type": "function"
    },
    {
      "inputs": [],
      "name": "fetchUserProperty",
      "outputs": [
        {
          "components": [
            {
              "internalType": "uint256",
              "name": "tokenId",
              "type": "uint256"
            },
            {
              "internalType": "address",
              "name": "recorder",
              "type": "address"
            },
            {
              "internalType": "address",
              "name": "database",
              "type": "address"
            },
            {
              "internalType": "uint256",
              "name": "instrumentNumber",
              "type": "uint256"
            },
            {
              "internalType": "string",
              "name": "status",
              "type": "string"
            },
            {
              "internalType": "bool",
              "name": "recorded",
              "type": "bool"
            }
          ],
          "internalType": "struct PropertyRecorder.PropertyData[]",
          "name": "",
          "type": "tuple[]"
        }
      ],
      "stateMutability": "view",
      "type": "function"
    },
    {
      "inputs": [
        {
          "internalType": "uint256",
          "name": "tokenId",
          "type": "uint256"
        }
      ],
      "name": "getApproved",
      "outputs": [
        {
          "internalType": "address",
          "name": "",
          "type": "address"
        }
      ],
      "stateMutability": "view",
      "type": "function"
    },
    {
      "inputs": [
        {
          "internalType": "uint256",
          "name": "",
          "type": "uint256"
        }
      ],
      "name": "idToProperty",
      "outputs": [
        {
          "internalType": "uint256",
          "name": "tokenId",
          "type": "uint256"
        },
        {
          "internalType": "address",
          "name": "recorder",
          "type": "address"
        },
        {
          "internalType": "address",
          "name": "database",
          "type": "address"
        },
        {
          "internalType": "uint256",
          "name": "instrumentNumber",
          "type": "uint256"
        },
        {
          "internalType": "string",
          "name": "status",
          "type": "string"
        },
        {
          "internalType": "bool",
          "name": "recorded",
          "type": "bool"
        }
      ],
      "stateMutability": "view",
      "type": "function"
    },
    {
      "inputs": [
        {
          "internalType": "address",
          "name": "owner",
          "type": "address"
        },
        {
          "internalType": "address",
          "name": "operator",
          "type": "address"
        }
      ],
      "name": "isApprovedForAll",
      "outputs": [
        {
          "internalType": "bool",
          "name": "",
          "type": "bool"
        }
      ],
      "stateMutability": "view",
      "type": "function"
    },
    {
      "inputs": [
        {
          "internalType": "address",
          "name": "",
          "type": "address"
        }
      ],
      "name": "isManager",
      "outputs": [
        {
          "internalType": "bool",
          "name": "",
          "type": "bool"
        }
      ],
      "stateMutability": "view",
      "type": "function"
    },
    {
      "inputs": [
        {
          "internalType": "uint256",
          "name": "",
          "type": "uint256"
        }
      ],
      "name": "managers",
      "outputs": [
        {
          "internalType": "address",
          "name": "",
          "type": "address"
        }
      ],
      "stateMutability": "view",
      "type": "function"
    },
    {
      "inputs": [],
      "name": "name",
      "outputs": [
        {
          "internalType": "string",
          "name": "",
          "type": "string"
        }
      ],
      "stateMutability": "view",
      "type": "function"
    },
    {
      "inputs": [
        {
          "internalType": "uint256",
          "name": "tokenId",
          "type": "uint256"
        }
      ],
      "name": "ownerOf",
      "outputs": [
        {
          "internalType": "address",
          "name": "",
          "type": "address"
        }
      ],
      "stateMutability": "view",
      "type": "function"
    },
    {
      "inputs": [
        {
          "internalType": "address",
          "name": "from",
          "type": "address"
        },
        {
          "internalType": "address",
          "name": "to",
          "type": "address"
        },
        {
          "internalType": "uint256",
          "name": "tokenId",
          "type": "uint256"
        }
      ],
      "name": "safeTransferFrom",
      "outputs": [],
      "stateMutability": "nonpayable",
      "type": "function"
    },
    {
      "inputs": [
        {
          "internalType": "address",
          "name": "from",
          "type": "address"
        },
        {
          "internalType": "address",
          "name": "to",
          "type": "address"
        },
        {
          "internalType": "uint256",
          "name": "tokenId",
          "type": "uint256"
        },
        {
          "internalType": "bytes",
          "name": "data",
          "type": "bytes"
        }
      ],
      "name": "safeTransferFrom",
      "outputs": [],
      "stateMutability": "nonpayable",
      "type": "function"
    },
    {
      "inputs": [
        {
          "internalType": "address",
          "name": "operator",
          "type": "address"
        },
        {
          "internalType": "bool",
          "name": "approved",
          "type": "bool"
        }
      ],
      "name": "setApprovalForAll",
      "outputs": [],
      "stateMutability": "nonpayable",
      "type": "function"
    },
    {
      "inputs": [
        {
          "internalType": "uint256",
          "name": "tokenId",
          "type": "uint256"
        },
        {
          "internalType": "string",
          "name": "_tokenURI",
          "type": "string"
        }
      ],
      "name": "setTokenURI",
      "outputs": [],
      "stateMutability": "nonpayable",
      "type": "function"
    },
    {
      "inputs": [
        {
          "internalType": "bytes4",
          "name": "interfaceId",
          "type": "bytes4"
        }
      ],
      "name": "supportsInterface",
      "outputs": [
        {
          "internalType": "bool",
          "name": "",
          "type": "bool"
        }
      ],
      "stateMutability": "view",
      "type": "function"
    },
    {
      "inputs": [],
      "name": "symbol",
      "outputs": [
        {
          "internalType": "string",
          "name": "",
          "type": "string"
        }
      ],
      "stateMutability": "view",
      "type": "function"
    },
    {
      "inputs": [
        {
          "internalType": "uint256",
          "name": "tokenId",
          "type": "uint256"
        }
      ],
      "name": "tokenURI",
      "outputs": [
        {
          "internalType": "string",
          "name": "",
          "type": "string"
        }
      ],
      "stateMutability": "view",
      "type": "function"
    },
    {
      "inputs": [
        {
          "internalType": "address",
          "name": "from",
          "type": "address"
        },
        {
          "internalType": "address",
          "name": "to",
          "type": "address"
        },
        {
          "internalType": "uint256",
          "name": "tokenId",
          "type": "uint256"
        }
      ],
      "name": "transferFrom",
      "outputs": [],
      "stateMutability": "nonpayable",
      "type": "function"
    }
  ],
  "bytecode": "0x60806040523480156200001157600080fd5b50604080518082018252600e81526d50726f7065727479207469746c6560901b60208083019182528351808501909452600384526214151560ea1b908401528151919291620000639160009162000094565b5080516200007990600190602084019062000094565b5050600980546001600160a01b031916331790555062000177565b828054620000a2906200013a565b90600052602060002090601f016020900481019282620000c6576000855562000111565b82601f10620000e157805160ff191683800117855562000111565b8280016001018555821562000111579182015b8281111562000111578251825591602001919060010190620000f4565b506200011f92915062000123565b5090565b5b808211156200011f576000815560010162000124565b600181811c908216806200014f57607f821691505b602082108114156200017157634e487b7160e01b600052602260045260246000fd5b50919050565b61285780620001876000396000f3fe608060405234801561001057600080fd5b506004361061018e5760003560e01c806370a08231116100de578063a22cb46511610097578063c87b56dd11610071578063c87b56dd14610367578063e985e9c51461037a578063f3ae2415146103b6578063f851a440146103d957600080fd5b8063a22cb46514610339578063abea39b91461034c578063b88d4fde1461035457600080fd5b806370a08231146102dd57806377b96ff8146102f05780637e8b36141461030357806382686b6b1461031657806386cbf80f1461031e57806395d89b411461033157600080fd5b806323b872dd1161014b57806342842e0e1161012557806342842e0e146102815780635a6368ef146102945780636352211e146102b557806368128ca4146102c857600080fd5b806323b872dd146102485780632d06177a1461025b5780633d39c2601461026e57600080fd5b806301ffc9a71461019357806306fdde03146101bb578063081812fc146101d0578063095ea7b3146101fb578063162094c4146102105780631e89606f14610223575b600080fd5b6101a66101a136600461215b565b6103ec565b60405190151581526020015b60405180910390f35b6101c3610417565b6040516101b291906121d0565b6101e36101de3660046121e3565b6104a9565b6040516001600160a01b0390911681526020016101b2565b61020e610209366004612218565b6104d0565b005b61020e61021e3660046122ee565b6105eb565b6102366102313660046121e3565b610674565b6040516101b296959493929190612335565b61020e610256366004612383565b610743565b61020e6102693660046123bf565b610774565b6101e361027c3660046121e3565b610896565b61020e61028f366004612383565b6108c0565b6102a76102a23660046123da565b6108db565b6040519081526020016101b2565b6101e36102c33660046121e3565b61091d565b6102d061097d565b6040516101b2919061241f565b6102a76102eb3660046123bf565b610bd9565b61020e6102fe3660046121e3565b610c5f565b6102a76103113660046123da565b610d57565b6102d0610dbe565b6102d061032c3660046121e3565b610fe2565b6101c3611295565b61020e6103473660046124d1565b6112a4565b6102d06112af565b61020e61036236600461250d565b6114b8565b6101c36103753660046121e3565b6114ea565b6101a6610388366004612589565b6001600160a01b03918216600090815260056020908152604080832093909416825291909152205460ff1690565b6101a66103c43660046123bf565b600b6020526000908152604090205460ff1681565b6009546101e3906001600160a01b031681565b60006001600160e01b03198216632483248360e11b14806104115750610411826115fb565b92915050565b606060008054610426906125bc565b80601f0160208091040260200160405190810160405280929190818152602001828054610452906125bc565b801561049f5780601f106104745761010080835404028352916020019161049f565b820191906000526020600020905b81548152906001019060200180831161048257829003601f168201915b5050505050905090565b60006104b48261164b565b506000908152600460205260409020546001600160a01b031690565b60006104db8261091d565b9050806001600160a01b0316836001600160a01b0316141561054e5760405162461bcd60e51b815260206004820152602160248201527f4552433732313a20617070726f76616c20746f2063757272656e74206f776e656044820152603960f91b60648201526084015b60405180910390fd5b336001600160a01b038216148061056a575061056a8133610388565b6105dc5760405162461bcd60e51b815260206004820152603d60248201527f4552433732313a20617070726f76652063616c6c6572206973206e6f7420746f60448201527f6b656e206f776e6572206f7220617070726f76656420666f7220616c6c0000006064820152608401610545565b6105e683836116ad565b505050565b6000828152600c60205260409020600101546001600160a01b03163314806106225750336000908152600b602052604090205460ff165b1561063557610631828261171b565b5050565b60405163cb3d1ef160e01b81526020600482015260136024820152722ab730baba3437b934bd32b21021b0b63632b960691b6044820152606401610545565b600c602052600090815260409020805460018201546002830154600384015460048501805494956001600160a01b0394851695939094169391926106b7906125bc565b80601f01602080910402602001604051908101604052809291908181526020018280546106e3906125bc565b80156107305780601f1061070557610100808354040283529160200191610730565b820191906000526020600020905b81548152906001019060200180831161071357829003601f168201915b5050506005909301549192505060ff1686565b61074d33826117ed565b6107695760405162461bcd60e51b8152600401610545906125f7565b6105e683838361186b565b6009546001600160a01b031633146107ce5760405162461bcd60e51b815260206004820152601760248201527f43616c6c6572206973206e6f7420746865206f776e65720000000000000000006044820152606401610545565b6001600160a01b0381166000908152600b602052604090205460ff161561082f5760405162461bcd60e51b81526020600482015260156024820152744d616e61676572206973206e6f7420756e6971756560581b6044820152606401610545565b600a805460018181019092557fc65a7bb8d6351c1cf70c95a316cc6a92839c986682d98bc35f958f4883f9d2a80180546001600160a01b039093166001600160a01b0319909316831790556000918252600b6020526040909120805460ff19169091179055565b600a81815481106108a657600080fd5b6000918252602090912001546001600160a01b0316905081565b6105e6838383604051806020016040528060008152506114b8565b60006108eb600780546001019055565b60006108f660075490565b905061090233826119cf565b61090c818561171b565b6109168184611b5a565b9392505050565b6000818152600260205260408120546001600160a01b0316806104115760405162461bcd60e51b8152602060048201526018602482015277115490cdcc8c4e881a5b9d985b1a59081d1bdad95b88125160421b6044820152606401610545565b6060600061098a60075490565b905060008060005b838110156109ed5733600c60006109aa84600161265a565b81526020810191909152604001600020600101546001600160a01b031614156109db576109d860018461265a565b92505b806109e581612672565b915050610992565b5060008267ffffffffffffffff811115610a0957610a09612242565b604051908082528060200260200182016040528015610a4257816020015b610a2f612078565b815260200190600190039081610a275790505b50905060005b84811015610bd05733600c6000610a6084600161265a565b81526020810191909152604001600020600101546001600160a01b03161415610bbe576000610a9082600161265a565b6000818152600c6020908152604091829020825160c0810184528154815260018201546001600160a01b039081169382019390935260028201549092169282019290925260038201546060820152600482018054939450919290918391608084019190610afc906125bc565b80601f0160208091040260200160405190810160405280929190818152602001828054610b28906125bc565b8015610b755780601f10610b4a57610100808354040283529160200191610b75565b820191906000526020600020905b815481529060010190602001808311610b5857829003601f168201915b50505091835250506005919091015460ff1615156020909101528451859087908110610ba357610ba361268d565b6020908102919091010152610bb960018661265a565b945050505b80610bc881612672565b915050610a48565b50949350505050565b60006001600160a01b038216610c435760405162461bcd60e51b815260206004820152602960248201527f4552433732313a2061646472657373207a65726f206973206e6f7420612076616044820152683634b21037bbb732b960b91b6064820152608401610545565b506001600160a01b031660009081526003602052604090205490565b336000908152600b602052604090205460ff16610cb85760405162461bcd60e51b815260206004820152601760248201527621b0b63632b91034b9903737ba10309036b0b730b3b2b960491b6044820152606401610545565b6000818152600c6020526040902060018101546001600160a01b0316610d205760405162461bcd60e51b815260206004820152601a60248201527f70726f706572747920646f65736e2774206578657369742e2e2e0000000000006044820152606401610545565b60408051808201909152600880825267185c1c1c9bdd995960c21b60208301908152610d51916004850191906120ac565b50505050565b336000908152600b602052604081205460ff16610db05760405162461bcd60e51b815260206004820152601760248201527621b0b63632b91034b9903737ba10309036b0b730b3b2b960491b6044820152606401610545565b6108eb600780546001019055565b60606000610dcb60075490565b90506000610dd860085490565b610de290836126a3565b90506000808267ffffffffffffffff811115610e0057610e00612242565b604051908082528060200260200182016040528015610e3957816020015b610e26612078565b815260200190600190039081610e1e5790505b50905060005b84811015610bd05730600c6000610e5784600161265a565b81526020810191909152604001600020600201546001600160a01b0316148015610e905750336000908152600b602052604090205460ff165b15610fd0576000610ea282600161265a565b6000818152600c6020908152604091829020825160c0810184528154815260018201546001600160a01b039081169382019390935260028201549092169282019290925260038201546060820152600482018054939450919290918391608084019190610f0e906125bc565b80601f0160208091040260200160405190810160405280929190818152602001828054610f3a906125bc565b8015610f875780601f10610f5c57610100808354040283529160200191610f87565b820191906000526020600020905b815481529060010190602001808311610f6a57829003601f168201915b50505091835250506005919091015460ff1615156020909101528451859087908110610fb557610fb561268d565b6020908102919091010152610fcb60018661265a565b945050505b80610fda81612672565b915050610e3f565b60606000610fef60075490565b90506000805b8281101561107b5730600c600061100d84600161265a565b81526020810191909152604001600020600201546001600160a01b0316148015611056575084600c600061104284600161265a565b815260200190815260200160002060030154145b15611069578161106581612672565b9250505b8061107381612672565b915050610ff5565b5060008167ffffffffffffffff81111561109757611097612242565b6040519080825280602002602001820160405280156110d057816020015b6110bd612078565b8152602001906001900390816110b55790505b5090506000805b8481101561128a5730600c60006110ef84600161265a565b81526020810191909152604001600020600201546001600160a01b0316148015611138575086600c600061112484600161265a565b815260200190815260200160002060030154145b15611278576000600c8161114d84600161265a565b81526020808201929092526040908101600020815160c0810183528154815260018201546001600160a01b03908116948201949094526002820154909316918301919091526003810154606083015260048101805491935083916080840191906111b6906125bc565b80601f01602080910402602001604051908101604052809291908181526020018280546111e2906125bc565b801561122f5780601f106112045761010080835404028352916020019161122f565b820191906000526020600020905b81548152906001019060200180831161121257829003601f168201915b50505091835250506005919091015460ff161515602090910152845185908590811061125d5761125d61268d565b6020026020010181905250828061127390612672565b935050505b8061128281612672565b9150506110d7565b509095945050505050565b606060018054610426906125bc565b610631338383611c81565b606060006112bc60075490565b905060006112c960085490565b6112d390836126a3565b90506000808267ffffffffffffffff8111156112f1576112f1612242565b60405190808252806020026020018201604052801561132a57816020015b611317612078565b81526020019060019003908161130f5790505b50905060005b84811015610bd05730600c600061134884600161265a565b81526020810191909152604001600020600201546001600160a01b031614156114a657600061137882600161265a565b6000818152600c6020908152604091829020825160c0810184528154815260018201546001600160a01b0390811693820193909352600282015490921692820192909252600382015460608201526004820180549394509192909183916080840191906113e4906125bc565b80601f0160208091040260200160405190810160405280929190818152602001828054611410906125bc565b801561145d5780601f106114325761010080835404028352916020019161145d565b820191906000526020600020905b81548152906001019060200180831161144057829003601f168201915b50505091835250506005919091015460ff161515602090910152845185908790811061148b5761148b61268d565b60209081029190910101526114a160018661265a565b945050505b806114b081612672565b915050611330565b6114c233836117ed565b6114de5760405162461bcd60e51b8152600401610545906125f7565b610d5184848484611d50565b60606114f58261164b565b6000828152600660205260408120805461150e906125bc565b80601f016020809104026020016040519081016040528092919081815260200182805461153a906125bc565b80156115875780601f1061155c57610100808354040283529160200191611587565b820191906000526020600020905b81548152906001019060200180831161156a57829003601f168201915b5050505050905060006115a560408051602081019091526000815290565b90508051600014156115b8575092915050565b8151156115ea5780826040516020016115d29291906126ba565b60405160208183030381529060405292505050919050565b6115f384611d83565b949350505050565b60006001600160e01b031982166380ac58cd60e01b148061162c57506001600160e01b03198216635b5e139f60e01b145b8061041157506301ffc9a760e01b6001600160e01b0319831614610411565b6000818152600260205260409020546001600160a01b03166116aa5760405162461bcd60e51b8152602060048201526018602482015277115490cdcc8c4e881a5b9d985b1a59081d1bdad95b88125160421b6044820152606401610545565b50565b600081815260046020526040902080546001600160a01b0319166001600160a01b03841690811790915581906116e28261091d565b6001600160a01b03167f8c5be1e5ebec7d5bd14f71427d1e84f3dd0314c0f7b2291e5b200ac8c7c3b92560405160405180910390a45050565b6000828152600260205260409020546001600160a01b03166117965760405162461bcd60e51b815260206004820152602e60248201527f45524337323155524953746f726167653a2055524920736574206f66206e6f6e60448201526d32bc34b9ba32b73a103a37b5b2b760911b6064820152608401610545565b600082815260066020908152604090912082516117b5928401906120ac565b506040518281527ff8e1a15aba9398e019f0b49df1a4fde98ee17ae345cb5f6b5e2c27f5033e8ce79060200160405180910390a15050565b6000806117f98361091d565b9050806001600160a01b0316846001600160a01b0316148061184057506001600160a01b0380821660009081526005602090815260408083209388168352929052205460ff165b806115f35750836001600160a01b0316611859846104a9565b6001600160a01b031614949350505050565b826001600160a01b031661187e8261091d565b6001600160a01b0316146118a45760405162461bcd60e51b8152600401610545906126e9565b6001600160a01b0382166119065760405162461bcd60e51b8152602060048201526024808201527f4552433732313a207472616e7366657220746f20746865207a65726f206164646044820152637265737360e01b6064820152608401610545565b826001600160a01b03166119198261091d565b6001600160a01b03161461193f5760405162461bcd60e51b8152600401610545906126e9565b600081815260046020908152604080832080546001600160a01b03199081169091556001600160a01b0387811680865260038552838620805460001901905590871680865283862080546001019055868652600290945282852080549092168417909155905184937fddf252ad1be2c89b69c2b068fc378daa952ba7f163c4a11628f55a4df523b3ef91a4505050565b6001600160a01b038216611a255760405162461bcd60e51b815260206004820181905260248201527f4552433732313a206d696e7420746f20746865207a65726f20616464726573736044820152606401610545565b6000818152600260205260409020546001600160a01b031615611a8a5760405162461bcd60e51b815260206004820152601c60248201527f4552433732313a20746f6b656e20616c7265616479206d696e746564000000006044820152606401610545565b6000818152600260205260409020546001600160a01b031615611aef5760405162461bcd60e51b815260206004820152601c60248201527f4552433732313a20746f6b656e20616c7265616479206d696e746564000000006044820152606401610545565b6001600160a01b038216600081815260036020908152604080832080546001019055848352600290915280822080546001600160a01b0319168417905551839291907fddf252ad1be2c89b69c2b068fc378daa952ba7f163c4a11628f55a4df523b3ef908290a45050565b604080518082018252600781526670656e64696e6760c81b602080830191909152825160c08101845285815233818301908152308286019081526060830187815260808401868152600160a0860181905260008b8152600c88529890982085518155935197840180546001600160a01b03199081166001600160a01b039a8b1617909155925160028501805490941698169790971790915551600382015593518051939491939192611c14926004850192909101906120ac565b5060a091909101516005909101805460ff1916911515919091179055611c3b33308561186b565b827ff5477ed8ab9007545e9310b9f2fee516cbc191c0a771031c5f7dd8d6558106d1333085856001604051611c7495949392919061272e565b60405180910390a2505050565b816001600160a01b0316836001600160a01b03161415611ce35760405162461bcd60e51b815260206004820152601960248201527f4552433732313a20617070726f766520746f2063616c6c6572000000000000006044820152606401610545565b6001600160a01b03838116600081815260056020908152604080832094871680845294825291829020805460ff191686151590811790915591519182527f17307eab39ab6107e8899845ad3d59bd9653f200f220920489ca2b5937696c31910160405180910390a3505050565b611d5b84848461186b565b611d6784848484611df6565b610d515760405162461bcd60e51b815260040161054590612775565b6060611d8e8261164b565b6000611da560408051602081019091526000815290565b90506000815111611dc55760405180602001604052806000815250610916565b80611dcf84611f03565b604051602001611de09291906126ba565b6040516020818303038152906040529392505050565b60006001600160a01b0384163b15611ef857604051630a85bd0160e11b81526001600160a01b0385169063150b7a0290611e3a9033908990889088906004016127c7565b602060405180830381600087803b158015611e5457600080fd5b505af1925050508015611e84575060408051601f3d908101601f19168201909252611e8191810190612804565b60015b611ede573d808015611eb2576040519150601f19603f3d011682016040523d82523d6000602084013e611eb7565b606091505b508051611ed65760405162461bcd60e51b815260040161054590612775565b805181602001fd5b6001600160e01b031916630a85bd0160e11b1490506115f3565b506001949350505050565b60606000611f1083611fa0565b600101905060008167ffffffffffffffff811115611f3057611f30612242565b6040519080825280601f01601f191660200182016040528015611f5a576020820181803683370190505b5090508181016020015b600019016f181899199a1a9b1b9c1cb0b131b232b360811b600a86061a8153600a8504945084611f9357611f98565b611f64565b509392505050565b60008072184f03e93ff9f4daa797ed6e38ed64bf6a1f0160401b8310611fdf5772184f03e93ff9f4daa797ed6e38ed64bf6a1f0160401b830492506040015b6d04ee2d6d415b85acef8100000000831061200b576d04ee2d6d415b85acef8100000000830492506020015b662386f26fc10000831061202957662386f26fc10000830492506010015b6305f5e1008310612041576305f5e100830492506008015b612710831061205557612710830492506004015b60648310612067576064830492506002015b600a83106104115760010192915050565b6040805160c0810182526000808252602082018190529181018290526060808201839052608082015260a081019190915290565b8280546120b8906125bc565b90600052602060002090601f0160209004810192826120da5760008555612120565b82601f106120f357805160ff1916838001178555612120565b82800160010185558215612120579182015b82811115612120578251825591602001919060010190612105565b5061212c929150612130565b5090565b5b8082111561212c5760008155600101612131565b6001600160e01b0319811681146116aa57600080fd5b60006020828403121561216d57600080fd5b813561091681612145565b60005b8381101561219357818101518382015260200161217b565b83811115610d515750506000910152565b600081518084526121bc816020860160208601612178565b601f01601f19169290920160200192915050565b60208152600061091660208301846121a4565b6000602082840312156121f557600080fd5b5035919050565b80356001600160a01b038116811461221357600080fd5b919050565b6000806040838503121561222b57600080fd5b612234836121fc565b946020939093013593505050565b634e487b7160e01b600052604160045260246000fd5b600067ffffffffffffffff8084111561227357612273612242565b604051601f8501601f19908116603f0116810190828211818310171561229b5761229b612242565b816040528093508581528686860111156122b457600080fd5b858560208301376000602087830101525050509392505050565b600082601f8301126122df57600080fd5b61091683833560208501612258565b6000806040838503121561230157600080fd5b82359150602083013567ffffffffffffffff81111561231f57600080fd5b61232b858286016122ce565b9150509250929050565b8681526001600160a01b038681166020830152851660408201526060810184905260c06080820181905260009061236e908301856121a4565b905082151560a0830152979650505050505050565b60008060006060848603121561239857600080fd5b6123a1846121fc565b92506123af602085016121fc565b9150604084013590509250925092565b6000602082840312156123d157600080fd5b610916826121fc565b600080604083850312156123ed57600080fd5b823567ffffffffffffffff81111561240457600080fd5b612410858286016122ce565b95602094909401359450505050565b60006020808301818452808551808352604092508286019150828160051b87010184880160005b838110156124c357888303603f19018552815180518452878101516001600160a01b03908116898601528782015116878501526060808201519085015260808082015160c0828701819052919061249f838801826121a4565b60a09485015115159790940196909652505094870194925090860190600101612446565b509098975050505050505050565b600080604083850312156124e457600080fd5b6124ed836121fc565b91506020830135801515811461250257600080fd5b809150509250929050565b6000806000806080858703121561252357600080fd5b61252c856121fc565b935061253a602086016121fc565b925060408501359150606085013567ffffffffffffffff81111561255d57600080fd5b8501601f8101871361256e57600080fd5b61257d87823560208401612258565b91505092959194509250565b6000806040838503121561259c57600080fd5b6125a5836121fc565b91506125b3602084016121fc565b90509250929050565b600181811c908216806125d057607f821691505b602082108114156125f157634e487b7160e01b600052602260045260246000fd5b50919050565b6020808252602d908201527f4552433732313a2063616c6c6572206973206e6f7420746f6b656e206f776e6560408201526c1c881bdc88185c1c1c9bdd9959609a1b606082015260800190565b634e487b7160e01b600052601160045260246000fd5b6000821982111561266d5761266d612644565b500190565b600060001982141561268657612686612644565b5060010190565b634e487b7160e01b600052603260045260246000fd5b6000828210156126b5576126b5612644565b500390565b600083516126cc818460208801612178565b8351908301906126e0818360208801612178565b01949350505050565b60208082526025908201527f4552433732313a207472616e736665722066726f6d20696e636f72726563742060408201526437bbb732b960d91b606082015260800190565b6001600160a01b038681168252851660208201526040810184905260a060608201819052600090612761908301856121a4565b905082151560808301529695505050505050565b60208082526032908201527f4552433732313a207472616e7366657220746f206e6f6e20455243373231526560408201527131b2b4bb32b91034b6b83632b6b2b73a32b960711b606082015260800190565b6001600160a01b03858116825284166020820152604081018390526080606082018190526000906127fa908301846121a4565b9695505050505050565b60006020828403121561281657600080fd5b81516109168161214556fea2646970667358221220183986b399201a3339407d8c1bfac13af11a45a7e233639cbdbb82fb14daaed064736f6c63430008080033",
  "linkReferences": {},
  "deployedLinkReferences": {}
}